{
  "contractName": "DutchAuction",
  "abi": [
    {
      "anonymous": false,
      "inputs": [
        {
          "indexed": true,
          "internalType": "address",
          "name": "owner",
          "type": "address"
        },
        {
          "indexed": false,
          "internalType": "uint256",
          "name": "startPrice",
          "type": "uint256"
        },
        {
          "indexed": false,
          "internalType": "uint256",
          "name": "endPrice",
          "type": "uint256"
        },
        {
          "indexed": false,
          "internalType": "uint256",
          "name": "startTime",
          "type": "uint256"
        },
        {
          "indexed": false,
          "internalType": "uint256",
          "name": "endTime",
          "type": "uint256"
        }
      ],
      "name": "AuctionCreated",
      "type": "event"
    },
    {
      "anonymous": false,
      "inputs": [
        {
          "indexed": false,
          "internalType": "uint256",
          "name": "finalPrice",
          "type": "uint256"
        },
        {
          "indexed": false,
          "internalType": "string",
          "name": "message",
          "type": "string"
        }
      ],
      "name": "AuctionEnded",
      "type": "event"
    },
    {
      "anonymous": false,
      "inputs": [
        {
          "indexed": true,
          "internalType": "address",
          "name": "buyer",
          "type": "address"
        },
        {
          "indexed": false,
          "internalType": "uint256",
          "name": "currentPrice",
          "type": "uint256"
        },
        {
          "indexed": false,
          "internalType": "uint256",
          "name": "refund",
          "type": "uint256"
        },
        {
          "indexed": false,
          "internalType": "string",
          "name": "message",
          "type": "string"
        }
      ],
      "name": "BuyEvent",
      "type": "event"
    },
    {
      "inputs": [],
      "name": "buyer",
      "outputs": [
        {
          "internalType": "address",
          "name": "",
          "type": "address"
        }
      ],
      "stateMutability": "view",
      "type": "function"
    },
    {
      "inputs": [],
      "name": "endPrice",
      "outputs": [
        {
          "internalType": "uint256",
          "name": "",
          "type": "uint256"
        }
      ],
      "stateMutability": "view",
      "type": "function"
    },
    {
      "inputs": [],
      "name": "isActive",
      "outputs": [
        {
          "internalType": "bool",
          "name": "",
          "type": "bool"
        }
      ],
      "stateMutability": "view",
      "type": "function"
    },
    {
      "inputs": [],
      "name": "nftItem",
      "outputs": [
        {
          "internalType": "contract IERCC721",
          "name": "",
          "type": "address"
        }
      ],
      "stateMutability": "view",
      "type": "function"
    },
    {
      "inputs": [],
      "name": "owner",
      "outputs": [
        {
          "internalType": "address",
          "name": "",
          "type": "address"
        }
      ],
      "stateMutability": "view",
      "type": "function"
    },
    {
      "inputs": [],
      "name": "startPrice",
      "outputs": [
        {
          "internalType": "uint256",
          "name": "",
          "type": "uint256"
        }
      ],
      "stateMutability": "view",
      "type": "function"
    },
    {
      "inputs": [],
      "name": "tokenId",
      "outputs": [
        {
          "internalType": "uint256",
          "name": "",
          "type": "uint256"
        }
      ],
      "stateMutability": "view",
      "type": "function"
    },
    {
      "inputs": [
        {
          "internalType": "uint256",
          "name": "_startPrice",
          "type": "uint256"
        },
        {
          "internalType": "uint256",
          "name": "_endPrice",
          "type": "uint256"
        },
        {
          "internalType": "uint256",
          "name": "_duration",
          "type": "uint256"
        },
        {
          "internalType": "address",
          "name": "_nftItem",
          "type": "address"
        },
        {
          "internalType": "uint256",
          "name": "_tokenId",
          "type": "uint256"
        }
      ],
      "name": "createAuction",
      "outputs": [],
      "stateMutability": "nonpayable",
      "type": "function"
    },
    {
      "inputs": [],
      "name": "getCurrentPrice",
      "outputs": [
        {
          "internalType": "uint256",
          "name": "",
          "type": "uint256"
        }
      ],
      "stateMutability": "view",
      "type": "function"
    },
    {
      "inputs": [],
      "name": "buy",
      "outputs": [],
      "stateMutability": "payable",
      "type": "function"
    },
    {
      "inputs": [],
      "name": "endAuction",
      "outputs": [],
      "stateMutability": "nonpayable",
      "type": "function"
    },
    {
      "inputs": [],
      "name": "getAuctionDetails",
      "outputs": [
        {
          "internalType": "uint256",
          "name": "_startPrice",
          "type": "uint256"
        },
        {
          "internalType": "uint256",
          "name": "_currentPrice",
          "type": "uint256"
        },
        {
          "internalType": "uint256",
          "name": "_endPrice",
          "type": "uint256"
        },
        {
          "internalType": "uint256",
          "name": "_startTime",
          "type": "uint256"
        },
        {
          "internalType": "uint256",
          "name": "_endTime",
          "type": "uint256"
        },
        {
          "internalType": "uint256",
          "name": "_tokenId",
          "type": "uint256"
        },
        {
          "internalType": "bool",
          "name": "_isActive",
          "type": "bool"
        },
        {
          "internalType": "address",
          "name": "_owner",
          "type": "address"
        },
        {
          "internalType": "address",
          "name": "_buyer",
          "type": "address"
        },
        {
          "internalType": "contract IERCC721",
          "name": "_nftItem",
          "type": "address"
        }
      ],
      "stateMutability": "view",
      "type": "function"
    },
    {
      "inputs": [],
      "name": "resetAuction",
      "outputs": [],
      "stateMutability": "nonpayable",
      "type": "function"
    }
  ],
  "bytecode": "0x608060405234801561001057600080fd5b50610c7a806100206000396000f3fe6080604052600436106100c25760003560e01c80639bfd3b381161007f578063b868723e11610059578063b868723e1461027d578063eb91d37e14610293578063f1a9af89146102a8578063fe67a54b146102be57600080fd5b80639bfd3b3814610235578063a1e0501114610255578063a6f2ae3a1461027557600080fd5b806317d70f7c146100c757806322f3e2d4146100f05780633a6dcea21461011a5780637150d8ae1461018a5780637d350453146101c25780638da5cb5b14610215575b600080fd5b3480156100d357600080fd5b506100dd60035481565b6040519081526020015b60405180910390f35b3480156100fc57600080fd5b5060085461010a9060ff1681565b60405190151581526020016100e7565b34801561012657600080fd5b5061012f6102d3565b604080519a8b5260208b0199909952978901969096526060880194909452608087019290925260a0860152151560c08501526001600160a01b0390811660e085015290811661010084015216610120820152610140016100e7565b34801561019657600080fd5b506001546101aa906001600160a01b031681565b6040516001600160a01b0390911681526020016100e7565b3480156101ce57600080fd5b506102136000600681905560078190556004819055600581905560038190556008805460ff1916905580546001600160a01b0319908116909155600180549091169055565b005b34801561022157600080fd5b506000546101aa906001600160a01b031681565b34801561024157600080fd5b50610213610250366004610b3a565b610369565b34801561026157600080fd5b506002546101aa906001600160a01b031681565b6102136105f6565b34801561028957600080fd5b506100dd60075481565b34801561029f57600080fd5b506100dd61090e565b3480156102b457600080fd5b506100dd60065481565b3480156102ca57600080fd5b50610213610987565b6000806000806000806000806000806006546102ed61090e565b600754600454600554600354600860009054906101000a900460ff1660008054906101000a90046001600160a01b0316600160009054906101000a90046001600160a01b0316600260009054906101000a90046001600160a01b0316995099509950995099509950995099509950995090919293949596979899565b600080546001600160a01b0319163317905561038d85670de0b6b3a7640000610b99565b6006556103a284670de0b6b3a7640000610b99565b6007554260048190556103b6908490610bb6565b600555600280546001600160a01b0319166001600160a01b03848116918217909255600383905560005460405163e985e9c560e01b8152921660048301523060248301529063e985e9c590604401602060405180830381865afa158015610421573d6000803e3d6000fd5b505050506040513d601f19601f820116820180604052508101906104459190610bc9565b6104b45760405162461bcd60e51b815260206004820152603560248201527f41756374696f6e20636f6e7472616374206973206e6f7420617070726f766564604482015274081d1bc81d1c985b9cd9995c881d1a1a5cc8139195605a1b60648201526084015b60405180910390fd5b6000546002546003546040516331a9108f60e11b815260048101919091526001600160a01b039283169290911690636352211e90602401602060405180830381865afa158015610508573d6000803e3d6000fd5b505050506040513d601f19601f8201168201806040525081019061052c9190610bf2565b6001600160a01b0316146105825760405162461bcd60e51b815260206004820152601b60248201527f43616c6c657220646f6573206e6f74206f776e20746865204e4654000000000060448201526064016104ab565b6008805460ff191660011790556000546006546007546004546005546040805194855260208501939093529183015260608201526001600160a01b03909116907fb0c0552f858e630668cc4c58a1b7d1bd302efa77c15d8ec0f1fe725053c598019060800160405180910390a25050505050565b60085460ff166106405760405162461bcd60e51b815260206004820152601560248201527441756374696f6e206973206e6f742061637469766560581b60448201526064016104ab565b600061064a61090e565b9050803410156106a75760405162461bcd60e51b815260206004820152602260248201527f496e73756666696369656e742066756e647320746f2062757920746865206974604482015261656d60f01b60648201526084016104ab565b6008805460ff19169055600180546001600160a01b031916339081179091556002546000546003546040516323b872dd60e01b81526001600160a01b0392831660048201526024810194909452604484015216906323b872dd90606401600060405180830381600087803b15801561071e57600080fd5b505af1158015610732573d6000803e3d6000fd5b5050600080546040519193506001600160a01b0316915083908381818185875af1925050503d8060008114610783576040519150601f19603f3d011682016040523d82523d6000602084013e610788565b606091505b50509050806107d95760405162461bcd60e51b815260206004820152601860248201527f5472616e7366657220746f206f776e6572206661696c6564000000000000000060448201526064016104ab565b60006107e58334610c0f565b90508015610882576001546040516001600160a01b03909116908290600081818185875af1925050503d806000811461083a576040519150601f19603f3d011682016040523d82523d6000602084013e61083f565b606091505b505080925050816108825760405162461bcd60e51b815260206004820152600d60248201526c1499599d5b990819985a5b1959609a1b60448201526064016104ab565b6001546040516001600160a01b03909116907f754b3ec781d0ff3c53a191afeb92e6dfc137d219ffdd60e40b278899e639acf89061090190869085909182526020820152606060408201819052601b908201527f4974656d207375636365737366756c6c79207075726368617365640000000000608082015260a00190565b60405180910390a2505050565b60006005544210610920575060075490565b6000600454426109309190610c0f565b905060006004546005546109449190610c0f565b905060006007546006546109589190610c0f565b90506000826109678584610b99565b6109719190610c22565b60065461097e9190610c0f565b95945050505050565b6000546001600160a01b031633146109e15760405162461bcd60e51b815260206004820152601a60248201527f4f6e6c79206f776e65722063616e20616363657373207468697300000000000060448201526064016104ab565b60085460ff16610a2b5760405162461bcd60e51b815260206004820152601560248201527441756374696f6e206973206e6f742061637469766560581b60448201526064016104ab565b6008805460ff191690556001546001600160a01b0316610ab9576002546000546003546040516323b872dd60e01b81526001600160a01b0392831660048201819052602482015260448101919091529116906323b872dd90606401600060405180830381600087803b158015610aa057600080fd5b505af1158015610ab4573d6000803e3d6000fd5b505050505b7f226c61f292d3650629c9ec295020c23fa82f23c285b1ce7d7e592ce2a3a85bb8610ae261090e565b60408051918252602082018190526016908201527520bab1ba34b7b71032b73232b210313c9037bbb732b960511b606082015260800160405180910390a1565b6001600160a01b0381168114610b3757600080fd5b50565b600080600080600060a08688031215610b5257600080fd5b8535945060208601359350604086013592506060860135610b7281610b22565b949793965091946080013592915050565b634e487b7160e01b600052601160045260246000fd5b8082028115828204841417610bb057610bb0610b83565b92915050565b80820180821115610bb057610bb0610b83565b600060208284031215610bdb57600080fd5b81518015158114610beb57600080fd5b9392505050565b600060208284031215610c0457600080fd5b8151610beb81610b22565b81810381811115610bb057610bb0610b83565b600082610c3f57634e487b7160e01b600052601260045260246000fd5b50049056fea264697066735822122037546f5b89401f42b8cd9ff581cf7f863c0e2fac0dc17c84e1667968d778461164736f6c63430008140033",
  "immutableReferences": {},
  "source": "// SPDX-License-Identifier: MIT\r\npragma solidity ^0.8.0;\r\n\r\ninterface IERCC721 {\r\n    function transferFrom(address from, address to, uint tokenId) external;\r\n    function ownerOf(uint tokenId) external view returns (address);\r\n    function isApprovedForAll(address owner, address operator) external view returns (bool);\r\n}\r\n\r\ncontract DutchAuction {\r\n    address public owner;\r\n    address public buyer;\r\n    IERCC721 public nftItem;\r\n    uint public tokenId;\r\n    uint private startTime;\r\n    uint private endTime;\r\n    uint public startPrice;\r\n    uint public endPrice;\r\n    bool public isActive;\r\n\r\n    event BuyEvent(address indexed buyer, uint currentPrice, uint refund, string message);\r\n    event AuctionEnded(uint finalPrice, string message);\r\n    event AuctionCreated(address indexed owner, uint startPrice, uint endPrice, uint startTime, uint endTime);\r\n\r\n    modifier onlyOwner() {\r\n        require(msg.sender == owner, \"Only owner can access this\");\r\n        _;\r\n    }\r\n\r\n    modifier auctionActive() {\r\n        require(isActive, \"Auction is not active\");\r\n        _;\r\n    }\r\n\r\n    function createAuction(uint _startPrice, uint _endPrice, uint _duration, address _nftItem, uint _tokenId) public {\r\n        owner = msg.sender;\r\n        startPrice = _startPrice * 1 ether;\r\n        endPrice = _endPrice * 1 ether;\r\n        startTime = block.timestamp;\r\n        endTime = startTime + _duration;\r\n        nftItem = IERCC721(_nftItem);\r\n        tokenId = _tokenId;\r\n\r\n        // Ensure the auction contract is approved to transfer the NFT\r\n        require(nftItem.isApprovedForAll(owner, address(this)), \"Auction contract is not approved to transfer this NFT\");\r\n\r\n        // Ensure the caller owns the NFT\r\n        require(nftItem.ownerOf(tokenId) == owner, \"Caller does not own the NFT\");\r\n\r\n        isActive = true;\r\n        emit AuctionCreated(owner, startPrice, endPrice, startTime, endTime);\r\n    }\r\n\r\n    function getCurrentPrice() public view returns (uint) {\r\n        if (block.timestamp >= endTime) {\r\n            return endPrice; // If time has passed, return end price\r\n        }\r\n        uint elapsedTime = block.timestamp - startTime;\r\n        uint totalDuration = endTime - startTime;\r\n        uint priceDecrease = startPrice - endPrice;\r\n        uint currentPrice = startPrice - (priceDecrease * elapsedTime / totalDuration);\r\n        return currentPrice;\r\n    }\r\n    \r\n    function buy() external payable auctionActive {\r\n        uint currentPrice = getCurrentPrice();\r\n        require(msg.value >= currentPrice, \"Insufficient funds to buy the item\");\r\n\r\n        isActive = false;\r\n        buyer = msg.sender;\r\n\r\n        // Transfer NFT to the buyer\r\n        nftItem.transferFrom(owner, buyer, tokenId);\r\n\r\n        // Transfer funds to the owner\r\n        (bool success, ) = payable(owner).call{value: currentPrice}(\"\");\r\n        require(success, \"Transfer to owner failed\");\r\n\r\n        // Refund excess payment\r\n        uint refund = msg.value - currentPrice;\r\n        if (refund > 0) {\r\n            (success, ) = payable(buyer).call{value: refund}(\"\");\r\n            require(success, \"Refund failed\");\r\n        }\r\n\r\n        emit BuyEvent(buyer, currentPrice, refund, \"Item successfully purchased\");\r\n    }\r\n\r\n    function endAuction() public onlyOwner auctionActive {\r\n        isActive = false;\r\n\r\n        // If the NFT wasn't sold, return it to the owner\r\n        if (buyer == address(0)) {\r\n            nftItem.transferFrom(owner, owner, tokenId);\r\n        }\r\n\r\n        emit AuctionEnded(getCurrentPrice(), \"Auction ended by owner\");\r\n    }\r\n\r\n    function getAuctionDetails() public view returns (\r\n        uint _startPrice,\r\n        uint _currentPrice,\r\n        uint _endPrice,\r\n        uint _startTime,\r\n        uint _endTime,\r\n        uint _tokenId,\r\n        bool _isActive,\r\n        address _owner,\r\n        address _buyer,\r\n        IERCC721 _nftItem\r\n    ) {\r\n        return (\r\n            startPrice,\r\n            getCurrentPrice(),\r\n            endPrice,\r\n            startTime,\r\n            endTime,\r\n            tokenId,\r\n            isActive,\r\n            owner,\r\n            buyer,\r\n            nftItem\r\n        );\r\n    }\r\n    function resetAuction() public  {\r\n        \r\n            startPrice = 0;\r\n            endPrice = 0;\r\n            startTime = 0;\r\n            endTime = 0;\r\n            tokenId = 0;\r\n            isActive = false;\r\n            owner = address(0);\r\n            buyer = address(0);\r\n            \r\n       \r\n    }\r\n}\r\n",
  "sourcePath": "D:\\Blockchain\\Truffle\\CRAwithTruffle\\truffle\\contracts\\DutchAuction.sol",
  "compiler": {
    "name": "solc",
    "version": "0.8.20+commit.a1b79de6.Emscripten.clang"
  },
  "schemaVersion": "3.4.16",
  "updatedAt": "2024-08-30T10:41:49.980Z",
  "devdoc": {
    "kind": "dev",
    "methods": {},
    "version": 1
  },
  "userdoc": {
    "kind": "user",
    "methods": {},
    "version": 1
  }
}