{
  "contractName": "EnglishAuction",
  "abi": [
    {
      "anonymous": false,
      "inputs": [
        {
          "indexed": false,
          "internalType": "address",
          "name": "HighestBidder",
          "type": "address"
        },
        {
          "indexed": false,
          "internalType": "uint256",
          "name": "HighestBid",
          "type": "uint256"
        }
      ],
      "name": "AuctionEnd",
      "type": "event"
    },
    {
      "anonymous": false,
      "inputs": [
        {
          "indexed": false,
          "internalType": "address",
          "name": "PreviewsHighestBidder",
          "type": "address"
        },
        {
          "indexed": false,
          "internalType": "uint256",
          "name": "PreviewsHighestBid",
          "type": "uint256"
        }
      ],
      "name": "previews",
      "type": "event"
    },
    {
      "inputs": [],
      "name": "beneficiar",
      "outputs": [
        {
          "internalType": "address",
          "name": "",
          "type": "address"
        }
      ],
      "stateMutability": "view",
      "type": "function"
    },
    {
      "inputs": [],
      "name": "endTime",
      "outputs": [
        {
          "internalType": "uint256",
          "name": "",
          "type": "uint256"
        }
      ],
      "stateMutability": "view",
      "type": "function"
    },
    {
      "inputs": [],
      "name": "ended",
      "outputs": [
        {
          "internalType": "bool",
          "name": "",
          "type": "bool"
        }
      ],
      "stateMutability": "view",
      "type": "function"
    },
    {
      "inputs": [],
      "name": "highestBid",
      "outputs": [
        {
          "internalType": "uint256",
          "name": "",
          "type": "uint256"
        }
      ],
      "stateMutability": "view",
      "type": "function"
    },
    {
      "inputs": [],
      "name": "highestBidder",
      "outputs": [
        {
          "internalType": "address",
          "name": "",
          "type": "address"
        }
      ],
      "stateMutability": "view",
      "type": "function"
    },
    {
      "inputs": [],
      "name": "owner",
      "outputs": [
        {
          "internalType": "address",
          "name": "",
          "type": "address"
        }
      ],
      "stateMutability": "view",
      "type": "function"
    },
    {
      "inputs": [
        {
          "internalType": "uint256",
          "name": "",
          "type": "uint256"
        }
      ],
      "name": "ownerof",
      "outputs": [
        {
          "internalType": "address",
          "name": "",
          "type": "address"
        }
      ],
      "stateMutability": "view",
      "type": "function"
    },
    {
      "inputs": [
        {
          "internalType": "address",
          "name": "",
          "type": "address"
        }
      ],
      "name": "returnBal",
      "outputs": [
        {
          "internalType": "uint256",
          "name": "",
          "type": "uint256"
        }
      ],
      "stateMutability": "view",
      "type": "function"
    },
    {
      "inputs": [],
      "name": "startTime",
      "outputs": [
        {
          "internalType": "uint256",
          "name": "",
          "type": "uint256"
        }
      ],
      "stateMutability": "view",
      "type": "function"
    },
    {
      "inputs": [],
      "name": "tokenId",
      "outputs": [
        {
          "internalType": "uint256",
          "name": "",
          "type": "uint256"
        }
      ],
      "stateMutability": "view",
      "type": "function"
    },
    {
      "inputs": [
        {
          "internalType": "address",
          "name": "_beneficiar",
          "type": "address"
        },
        {
          "internalType": "uint256",
          "name": "_duration",
          "type": "uint256"
        },
        {
          "internalType": "uint256",
          "name": "_tokenId",
          "type": "uint256"
        }
      ],
      "name": "StartBidding",
      "outputs": [],
      "stateMutability": "nonpayable",
      "type": "function"
    },
    {
      "inputs": [
        {
          "internalType": "uint256",
          "name": "id",
          "type": "uint256"
        }
      ],
      "name": "Bid",
      "outputs": [],
      "stateMutability": "payable",
      "type": "function"
    },
    {
      "inputs": [
        {
          "internalType": "uint256",
          "name": "id",
          "type": "uint256"
        }
      ],
      "name": "Withdraw",
      "outputs": [],
      "stateMutability": "nonpayable",
      "type": "function"
    },
    {
      "inputs": [
        {
          "internalType": "uint256",
          "name": "id",
          "type": "uint256"
        }
      ],
      "name": "EndTime",
      "outputs": [],
      "stateMutability": "nonpayable",
      "type": "function"
    },
    {
      "inputs": [],
      "name": "Cancel",
      "outputs": [],
      "stateMutability": "nonpayable",
      "type": "function"
    },
    {
      "inputs": [],
      "name": "AuctionDetail",
      "outputs": [
        {
          "internalType": "address",
          "name": "Owner",
          "type": "address"
        },
        {
          "internalType": "address",
          "name": "Beneficiar",
          "type": "address"
        },
        {
          "internalType": "address",
          "name": "HighestBidder",
          "type": "address"
        },
        {
          "internalType": "uint256",
          "name": "HighestBid",
          "type": "uint256"
        },
        {
          "internalType": "uint256",
          "name": "ToknId",
          "type": "uint256"
        },
        {
          "internalType": "uint256",
          "name": "EndedTime",
          "type": "uint256"
        }
      ],
      "stateMutability": "view",
      "type": "function"
    },
    {
      "inputs": [],
      "name": "checkTime",
      "outputs": [
        {
          "internalType": "uint256",
          "name": "Time",
          "type": "uint256"
        }
      ],
      "stateMutability": "view",
      "type": "function"
    },
    {
      "inputs": [],
      "name": "reset",
      "outputs": [],
      "stateMutability": "nonpayable",
      "type": "function"
    }
  ],
  "bytecode": "0x6080604052670de0b6b3a764000060035534801561001c57600080fd5b50610d928061002c6000396000f3fe6080604052600436106101095760003560e01c806386b91f8b11610095578063bdebb52511610064578063bdebb525146102fc578063d57bde7914610332578063d826f88f14610348578063e0c6190d14610399578063fedf70e3146103ae57600080fd5b806386b91f8b146102175780638da5cb5b1461027757806391815680146102af57806391f90157146102dc57600080fd5b80633197cbb6116100dc5780633197cbb6146101a35780634aa8e773146101b95780635b6b431d146101ce57806378e97925146101ee5780637a183e841461020457600080fd5b806312fa6feb1461010e57806317d70f7c1461013d578063240c066d1461016157806329b1843714610183575b600080fd5b34801561011a57600080fd5b506004546101289060ff1681565b60405190151581526020015b60405180910390f35b34801561014957600080fd5b5061015360065481565b604051908152602001610134565b34801561016d57600080fd5b5061018161017c366004610c6a565b6103ce565b005b34801561018f57600080fd5b5061018161019e366004610c9f565b610580565b3480156101af57600080fd5b5061015360055481565b3480156101c557600080fd5b506101816105f5565b3480156101da57600080fd5b506101816101e9366004610c6a565b6107ba565b3480156101fa57600080fd5b5061015360075481565b610181610212366004610c6a565b6109df565b34801561022357600080fd5b50600054600154600254600354600654600554604080516001600160a01b039788168152958716602087015295909316948401949094526060830152608082019290925260a081019190915260c001610134565b34801561028357600080fd5b50600054610297906001600160a01b031681565b6040516001600160a01b039091168152602001610134565b3480156102bb57600080fd5b506101536102ca366004610cd2565b60086020526000908152604090205481565b3480156102e857600080fd5b50600254610297906001600160a01b031681565b34801561030857600080fd5b50610297610317366004610c6a565b6009602052600090815260409020546001600160a01b031681565b34801561033e57600080fd5b5061015360035481565b34801561035457600080fd5b50610181600080546001600160a01b03199081168255600180548216905560028054909116905560038190556004805460ff1916905560058190556006819055600755565b3480156103a557600080fd5b50610153610c45565b3480156103ba57600080fd5b50600154610297906001600160a01b031681565b8080600654146103f95760405162461bcd60e51b81526004016103f090610cf4565b60405180910390fd5b6000546001600160a01b0316331461044b5760405162461bcd60e51b81526020600482015260156024820152744f6e6c79204f776e65722043616e2041636365737360581b60448201526064016103f0565b60048054600160ff199091168117909155600254600080546001600160a01b039283166001600160a01b031991821681178355868352600960205260408084208054909316909117909155925460035493519193921691908381818185875af1925050503d80600081146104db576040519150601f19603f3d011682016040523d82523d6000602084013e6104e0565b606091505b50509050806105315760405162461bcd60e51b815260206004820152601d60248201527f5472616e73666572206661696c656420746f2062656e6566696369617200000060448201526064016103f0565b600254600354604080516001600160a01b03909316835260208301919091527f6ae96154c7c63a88543f3fdfca38bc8f87f4e2b034479c9429858b4b56fa0bec910160405180910390a1505050565b60008054336001600160a01b031991821617909155600180549091166001600160a01b0385161790554260078190556105ba908390610d30565b600555600681905560015460009182526009602052604090912080546001600160a01b0319166001600160a01b039092169190911790555050565b6000546001600160a01b031633146106475760405162461bcd60e51b81526020600482015260156024820152744f6e6c79204f776e65722043616e2041636365737360581b60448201526064016103f0565b60045460ff161561068d5760405162461bcd60e51b815260206004820152601060248201526f105d58dd1a5bdb88125cc8115b99195960821b60448201526064016103f0565b60055442106106d55760405162461bcd60e51b81526020600482015260146024820152732134b23234b733903a34b6b29034b99037bb32b960611b60448201526064016103f0565b6004805460ff19166001179055600354156107b857600354600280546001600160a01b039081166000908152600860205260408082208590559254925190939290911691908381818185875af1925050503d8060008114610752576040519150601f19603f3d011682016040523d82523d6000602084013e610757565b606091505b50509050806107b65760405162461bcd60e51b815260206004820152602560248201527f7472616e73666572206661696c656420746f206261636b20686967686573746260448201526434b23232b960d91b60648201526084016103f0565b505b565b8080600654146107dc5760405162461bcd60e51b81526004016103f090610cf4565b60045460ff166108455760405162461bcd60e51b815260206004820152602e60248201527f4f6e6c7920576974686472617720416674657220456e6465642042696464696e60448201526d339027a9102a34b6b29027bb32b960911b60648201526084016103f0565b6002546001600160a01b031633036108af5760405162461bcd60e51b815260206004820152602760248201527f43616e27742057697468647261772c20596f7572204172652048696768657374604482015266102134b23232b960c91b60648201526084016103f0565b33600090815260086020526040902054806109325760405162461bcd60e51b815260206004820152603960248201527f496e737566696369616e742046756e64732c20596f752048617665204e6f742060448201527f456e6f67682042616c616e636520746f2057697468647261770000000000000060648201526084016103f0565b336000818152600860205260408082208290555190919083908381818185875af1925050503d8060008114610983576040519150601f19603f3d011682016040523d82523d6000602084013e610988565b606091505b50509050806109d95760405162461bcd60e51b815260206004820152601b60248201527f5472616e73666572206661696c656420746f207769746864726177000000000060448201526064016103f0565b50505050565b60045460ff1615610a255760405162461bcd60e51b815260206004820152601060248201526f105d58dd1a5bdb88125cc8115b99195960821b60448201526064016103f0565b6005544210610a6d5760405162461bcd60e51b81526020600482015260146024820152732134b23234b733903a34b6b29034b99037bb32b960611b60448201526064016103f0565b808060065414610a8f5760405162461bcd60e51b81526004016103f090610cf4565b6000546001600160a01b03163314801590610ab557506001546001600160a01b03163314155b610b015760405162461bcd60e51b815260206004820152601e60248201527f4f776e657220416e642042656e6566696369616e2043616e277420426964000060448201526064016103f0565b60045460ff1615610b445760405162461bcd60e51b815260206004820152600d60248201526c151a5b59481a5cc8115b991959609a1b60448201526064016103f0565b6003543411610bbb5760405162461bcd60e51b815260206004820152603760248201527f506c6561736520496e6372656173652042696420416d6f756e742c205468657260448201527f6520497320416c7265616479204869676865722042696400000000000000000060648201526084016103f0565b60028054600380546001600160a01b03198316331790935534908190556001600160a01b03909116919015610bfd573360009081526008602052604090203490555b604080516001600160a01b0384168152602081018390527fa30f0834c05784ba29337d94dc2beb24ce2893e3371fde0c17bb350f690fc0f9910160405180910390a150505050565b6000600554421115610c575750600090565b42600554610c659190610d49565b905090565b600060208284031215610c7c57600080fd5b5035919050565b80356001600160a01b0381168114610c9a57600080fd5b919050565b600080600060608486031215610cb457600080fd5b610cbd84610c83565b95602085013595506040909401359392505050565b600060208284031215610ce457600080fd5b610ced82610c83565b9392505050565b6020808252600c908201526b125908139bdd08115e1a5cdd60a21b604082015260600190565b634e487b7160e01b600052601160045260246000fd5b80820180821115610d4357610d43610d1a565b92915050565b81810381811115610d4357610d43610d1a56fea26469706673582212202d53274609e6b027c9e9c40800e1db843fdbbb7637746b5097c080e963cdf4e964736f6c63430008140033",
  "immutableReferences": {},
  "source": "// SPDX-License-Identifier: MIT\r\npragma solidity ^0.8.0;\r\ncontract EnglishAuction {\r\n    address public owner;\r\n    address public beneficiar;\r\n    address public highestBidder;\r\n    uint public highestBid = 1 ether;\r\n    bool public ended;\r\n    uint public endTime;\r\n    uint public tokenId;\r\n    uint public startTime;\r\n    mapping(address => uint) public returnBal;\r\n    mapping(uint => address) public ownerof;\r\n\r\n    event AuctionEnd(address HighestBidder, uint HighestBid);\r\n    event previews(address PreviewsHighestBidder, uint PreviewsHighestBid);\r\n\r\n    function StartBidding(\r\n        address _beneficiar,\r\n        uint _duration,\r\n        uint _tokenId\r\n    ) public {\r\n        owner = msg.sender;\r\n        beneficiar = _beneficiar;\r\n        startTime = block.timestamp;\r\n        endTime = startTime + _duration;\r\n        tokenId = _tokenId;\r\n        ownerof[_tokenId] = beneficiar;\r\n    }\r\n\r\n    modifier onlyOwner() {\r\n        require(msg.sender == owner, \"Only Owner Can Access\");\r\n        _;\r\n    }\r\n    modifier isExist(uint id) {\r\n        require(tokenId == id, \"Id Not Exist\");\r\n        _;\r\n    }\r\n    modifier TimeNotEnded() {\r\n        require(!ended, \"Auction Is Ended\");\r\n        require(block.timestamp < endTime, \"Bidding time is over\");\r\n        _;\r\n    }\r\n\r\n    function Bid(uint id) public payable TimeNotEnded isExist(id) {\r\n        require(\r\n            msg.sender != owner && msg.sender != beneficiar,\r\n            \"Owner And Benefician Can't Bid\"\r\n        );\r\n        require(!ended, \"Time is Ended\");\r\n        require(\r\n            msg.value > highestBid,\r\n            \"Please Increase Bid Amount, There Is Already Higher Bid\"\r\n        );\r\n\r\n        address PreviewsHighestBidder = highestBidder;\r\n        uint PreviewsHighestBid = highestBid;\r\n        highestBidder = msg.sender;\r\n        highestBid = msg.value;\r\n\r\n        if (highestBid != 0) {\r\n            returnBal[msg.sender] = msg.value;\r\n        }\r\n        emit previews(PreviewsHighestBidder, PreviewsHighestBid);\r\n    }\r\n\r\n    function Withdraw(uint id) public isExist(id) {\r\n        require(ended, \"Only Withdraw After Ended Bidding OR Time Over\");\r\n        require(\r\n            msg.sender != highestBidder,\r\n            \"Can't Withdraw, Your Are Highest Bidder\"\r\n        );\r\n        uint balance = returnBal[msg.sender];\r\n        require(\r\n            balance > 0,\r\n            \"Insuficiant Funds, You Have Not Enogh Balance to Withdraw\"\r\n        );\r\n\r\n        returnBal[msg.sender] = 0;\r\n        (bool sent, ) = payable(msg.sender).call{value: balance}(\"\");\r\n        require(sent, \"Transfer failed to withdraw\");\r\n    }\r\n\r\n    function EndTime(uint id) public isExist(id) onlyOwner {\r\n        ended = true;\r\n        owner = highestBidder;\r\n        ownerof[id] = highestBidder;\r\n        (bool sent, ) = beneficiar.call{value: highestBid}(\"\");\r\n        require(sent, \"Transfer failed to beneficiar\");\r\n\r\n        emit AuctionEnd(highestBidder, highestBid);\r\n    }\r\n\r\n    function Cancel() public onlyOwner TimeNotEnded {\r\n        ended = true;\r\n\r\n        if (highestBid != 0) {\r\n            returnBal[highestBidder] = highestBid;\r\n            (bool sent, ) = highestBidder.call{value: highestBid}(\"\");\r\n            require(sent, \"transfer failed to back highestbidder\");\r\n        }\r\n    }\r\n\r\n    function AuctionDetail()\r\n        public\r\n        view\r\n        returns (\r\n            address Owner,\r\n            address Beneficiar,\r\n            address HighestBidder,\r\n            uint HighestBid,\r\n            uint ToknId,\r\n            uint EndedTime\r\n        )\r\n    {\r\n        return (owner, beneficiar, highestBidder, highestBid, tokenId, endTime);\r\n    }\r\n\r\n    function checkTime() public view returns (uint Time) {\r\n        if (block.timestamp > endTime) {\r\n            return 0;\r\n        } else {\r\n            return endTime - block.timestamp;\r\n        }\r\n    }\r\n    function reset() public {\r\n        owner = address(0);\r\n        beneficiar = address(0);\r\n        highestBidder = address(0);\r\n        highestBid = 0 ether;\r\n        ended = false;\r\n        endTime = 0;\r\n        tokenId = 0;\r\n        startTime = 0;\r\n    }\r\n}\r\n",
  "sourcePath": "D:\\Blockchain\\Truffle\\CRAwithTruffle\\truffle\\contracts\\EnglishAuction.sol",
  "compiler": {
    "name": "solc",
    "version": "0.8.20+commit.a1b79de6.Emscripten.clang"
  },
  "schemaVersion": "3.4.16",
  "updatedAt": "2024-09-04T12:19:00.266Z",
  "devdoc": {
    "kind": "dev",
    "methods": {},
    "version": 1
  },
  "userdoc": {
    "kind": "user",
    "methods": {},
    "version": 1
  }
}