{
  "contractName": "MyNFT",
  "abi": [
    {
      "inputs": [
        {
          "internalType": "string",
          "name": "name",
          "type": "string"
        },
        {
          "internalType": "string",
          "name": "symbol",
          "type": "string"
        }
      ],
      "stateMutability": "nonpayable",
      "type": "constructor"
    },
    {
      "inputs": [
        {
          "internalType": "address",
          "name": "sender",
          "type": "address"
        },
        {
          "internalType": "uint256",
          "name": "tokenId",
          "type": "uint256"
        },
        {
          "internalType": "address",
          "name": "owner",
          "type": "address"
        }
      ],
      "name": "ERC721IncorrectOwner",
      "type": "error"
    },
    {
      "inputs": [
        {
          "internalType": "address",
          "name": "operator",
          "type": "address"
        },
        {
          "internalType": "uint256",
          "name": "tokenId",
          "type": "uint256"
        }
      ],
      "name": "ERC721InsufficientApproval",
      "type": "error"
    },
    {
      "inputs": [
        {
          "internalType": "address",
          "name": "approver",
          "type": "address"
        }
      ],
      "name": "ERC721InvalidApprover",
      "type": "error"
    },
    {
      "inputs": [
        {
          "internalType": "address",
          "name": "operator",
          "type": "address"
        }
      ],
      "name": "ERC721InvalidOperator",
      "type": "error"
    },
    {
      "inputs": [
        {
          "internalType": "address",
          "name": "owner",
          "type": "address"
        }
      ],
      "name": "ERC721InvalidOwner",
      "type": "error"
    },
    {
      "inputs": [
        {
          "internalType": "address",
          "name": "receiver",
          "type": "address"
        }
      ],
      "name": "ERC721InvalidReceiver",
      "type": "error"
    },
    {
      "inputs": [
        {
          "internalType": "address",
          "name": "sender",
          "type": "address"
        }
      ],
      "name": "ERC721InvalidSender",
      "type": "error"
    },
    {
      "inputs": [
        {
          "internalType": "uint256",
          "name": "tokenId",
          "type": "uint256"
        }
      ],
      "name": "ERC721NonexistentToken",
      "type": "error"
    },
    {
      "anonymous": false,
      "inputs": [
        {
          "indexed": true,
          "internalType": "address",
          "name": "owner",
          "type": "address"
        },
        {
          "indexed": true,
          "internalType": "address",
          "name": "approved",
          "type": "address"
        },
        {
          "indexed": true,
          "internalType": "uint256",
          "name": "tokenId",
          "type": "uint256"
        }
      ],
      "name": "Approval",
      "type": "event"
    },
    {
      "anonymous": false,
      "inputs": [
        {
          "indexed": true,
          "internalType": "address",
          "name": "owner",
          "type": "address"
        },
        {
          "indexed": true,
          "internalType": "address",
          "name": "operator",
          "type": "address"
        },
        {
          "indexed": false,
          "internalType": "bool",
          "name": "approved",
          "type": "bool"
        }
      ],
      "name": "ApprovalForAll",
      "type": "event"
    },
    {
      "anonymous": false,
      "inputs": [
        {
          "indexed": true,
          "internalType": "address",
          "name": "to",
          "type": "address"
        },
        {
          "indexed": true,
          "internalType": "uint256",
          "name": "tokenId",
          "type": "uint256"
        }
      ],
      "name": "MintAttempt",
      "type": "event"
    },
    {
      "anonymous": false,
      "inputs": [
        {
          "indexed": true,
          "internalType": "address",
          "name": "from",
          "type": "address"
        },
        {
          "indexed": true,
          "internalType": "address",
          "name": "to",
          "type": "address"
        },
        {
          "indexed": true,
          "internalType": "uint256",
          "name": "tokenId",
          "type": "uint256"
        }
      ],
      "name": "Transfer",
      "type": "event"
    },
    {
      "inputs": [],
      "name": "admin",
      "outputs": [
        {
          "internalType": "address",
          "name": "",
          "type": "address"
        }
      ],
      "stateMutability": "view",
      "type": "function"
    },
    {
      "inputs": [
        {
          "internalType": "address",
          "name": "to",
          "type": "address"
        },
        {
          "internalType": "uint256",
          "name": "tokenId",
          "type": "uint256"
        }
      ],
      "name": "approve",
      "outputs": [],
      "stateMutability": "nonpayable",
      "type": "function"
    },
    {
      "inputs": [
        {
          "internalType": "address",
          "name": "owner",
          "type": "address"
        }
      ],
      "name": "balanceOf",
      "outputs": [
        {
          "internalType": "uint256",
          "name": "",
          "type": "uint256"
        }
      ],
      "stateMutability": "view",
      "type": "function"
    },
    {
      "inputs": [
        {
          "internalType": "uint256",
          "name": "tokenId",
          "type": "uint256"
        }
      ],
      "name": "getApproved",
      "outputs": [
        {
          "internalType": "address",
          "name": "",
          "type": "address"
        }
      ],
      "stateMutability": "view",
      "type": "function"
    },
    {
      "inputs": [
        {
          "internalType": "address",
          "name": "owner",
          "type": "address"
        },
        {
          "internalType": "address",
          "name": "operator",
          "type": "address"
        }
      ],
      "name": "isApprovedForAll",
      "outputs": [
        {
          "internalType": "bool",
          "name": "",
          "type": "bool"
        }
      ],
      "stateMutability": "view",
      "type": "function"
    },
    {
      "inputs": [
        {
          "internalType": "uint256",
          "name": "",
          "type": "uint256"
        }
      ],
      "name": "isMinted",
      "outputs": [
        {
          "internalType": "bool",
          "name": "",
          "type": "bool"
        }
      ],
      "stateMutability": "view",
      "type": "function"
    },
    {
      "inputs": [],
      "name": "name",
      "outputs": [
        {
          "internalType": "string",
          "name": "",
          "type": "string"
        }
      ],
      "stateMutability": "view",
      "type": "function"
    },
    {
      "inputs": [],
      "name": "owner",
      "outputs": [
        {
          "internalType": "address",
          "name": "",
          "type": "address"
        }
      ],
      "stateMutability": "view",
      "type": "function"
    },
    {
      "inputs": [
        {
          "internalType": "uint256",
          "name": "tokenId",
          "type": "uint256"
        }
      ],
      "name": "ownerOf",
      "outputs": [
        {
          "internalType": "address",
          "name": "",
          "type": "address"
        }
      ],
      "stateMutability": "view",
      "type": "function"
    },
    {
      "inputs": [
        {
          "internalType": "address",
          "name": "from",
          "type": "address"
        },
        {
          "internalType": "address",
          "name": "to",
          "type": "address"
        },
        {
          "internalType": "uint256",
          "name": "tokenId",
          "type": "uint256"
        }
      ],
      "name": "safeTransferFrom",
      "outputs": [],
      "stateMutability": "nonpayable",
      "type": "function"
    },
    {
      "inputs": [
        {
          "internalType": "address",
          "name": "from",
          "type": "address"
        },
        {
          "internalType": "address",
          "name": "to",
          "type": "address"
        },
        {
          "internalType": "uint256",
          "name": "tokenId",
          "type": "uint256"
        },
        {
          "internalType": "bytes",
          "name": "data",
          "type": "bytes"
        }
      ],
      "name": "safeTransferFrom",
      "outputs": [],
      "stateMutability": "nonpayable",
      "type": "function"
    },
    {
      "inputs": [
        {
          "internalType": "address",
          "name": "operator",
          "type": "address"
        },
        {
          "internalType": "bool",
          "name": "approved",
          "type": "bool"
        }
      ],
      "name": "setApprovalForAll",
      "outputs": [],
      "stateMutability": "nonpayable",
      "type": "function"
    },
    {
      "inputs": [
        {
          "internalType": "bytes4",
          "name": "interfaceId",
          "type": "bytes4"
        }
      ],
      "name": "supportsInterface",
      "outputs": [
        {
          "internalType": "bool",
          "name": "",
          "type": "bool"
        }
      ],
      "stateMutability": "view",
      "type": "function"
    },
    {
      "inputs": [],
      "name": "symbol",
      "outputs": [
        {
          "internalType": "string",
          "name": "",
          "type": "string"
        }
      ],
      "stateMutability": "view",
      "type": "function"
    },
    {
      "inputs": [],
      "name": "tokenId",
      "outputs": [
        {
          "internalType": "uint256",
          "name": "",
          "type": "uint256"
        }
      ],
      "stateMutability": "view",
      "type": "function"
    },
    {
      "inputs": [
        {
          "internalType": "uint256",
          "name": "tokenId",
          "type": "uint256"
        }
      ],
      "name": "tokenURI",
      "outputs": [
        {
          "internalType": "string",
          "name": "",
          "type": "string"
        }
      ],
      "stateMutability": "view",
      "type": "function"
    },
    {
      "inputs": [
        {
          "internalType": "address",
          "name": "from",
          "type": "address"
        },
        {
          "internalType": "address",
          "name": "to",
          "type": "address"
        },
        {
          "internalType": "uint256",
          "name": "tokenId",
          "type": "uint256"
        }
      ],
      "name": "transferFrom",
      "outputs": [],
      "stateMutability": "nonpayable",
      "type": "function"
    },
    {
      "inputs": [
        {
          "internalType": "address",
          "name": "to",
          "type": "address"
        },
        {
          "internalType": "uint256",
          "name": "_tokenId",
          "type": "uint256"
        }
      ],
      "name": "mint",
      "outputs": [],
      "stateMutability": "nonpayable",
      "type": "function"
    },
    {
      "inputs": [
        {
          "internalType": "address",
          "name": "auctionContract",
          "type": "address"
        }
      ],
      "name": "setApprovalForAllToAuction",
      "outputs": [],
      "stateMutability": "nonpayable",
      "type": "function"
    },
    {
      "inputs": [
        {
          "internalType": "address",
          "name": "_owner",
          "type": "address"
        },
        {
          "internalType": "address",
          "name": "operator",
          "type": "address"
        }
      ],
      "name": "checkisApprovedForAll",
      "outputs": [
        {
          "internalType": "bool",
          "name": "",
          "type": "bool"
        }
      ],
      "stateMutability": "view",
      "type": "function"
    },
    {
      "inputs": [
        {
          "internalType": "uint256",
          "name": "_tokenId",
          "type": "uint256"
        }
      ],
      "name": "burn",
      "outputs": [],
      "stateMutability": "nonpayable",
      "type": "function"
    }
  ],
  "bytecode": "0x60806040523480156200001157600080fd5b50604051620015cd380380620015cd833981016040819052620000349162000136565b818160006200004483826200022f565b5060016200005382826200022f565b5050600780546001600160a01b0319163317905550620002fb915050565b634e487b7160e01b600052604160045260246000fd5b600082601f8301126200009957600080fd5b81516001600160401b0380821115620000b657620000b662000071565b604051601f8301601f19908116603f01168101908282118183101715620000e157620000e162000071565b81604052838152602092508683858801011115620000fe57600080fd5b600091505b8382101562000122578582018301518183018401529082019062000103565b600093810190920192909252949350505050565b600080604083850312156200014a57600080fd5b82516001600160401b03808211156200016257600080fd5b620001708683870162000087565b935060208501519150808211156200018757600080fd5b50620001968582860162000087565b9150509250929050565b600181811c90821680620001b557607f821691505b602082108103620001d657634e487b7160e01b600052602260045260246000fd5b50919050565b601f8211156200022a57600081815260208120601f850160051c81016020861015620002055750805b601f850160051c820191505b81811015620002265782815560010162000211565b5050505b505050565b81516001600160401b038111156200024b576200024b62000071565b62000263816200025c8454620001a0565b84620001dc565b602080601f8311600181146200029b5760008415620002825750858301515b600019600386901b1c1916600185901b17855562000226565b600085815260208120601f198616915b82811015620002cc57888601518255948401946001909101908401620002ab565b5085821015620002eb5787850151600019600388901b60f8161c191681555b5050505050600190811b01905550565b6112c2806200030b6000396000f3fe608060405234801561001057600080fd5b50600436106101375760003560e01c80635692ceee116100b8578063a22cb4651161007c578063a22cb46514610293578063b88d4fde146102a6578063c87b56dd146102b9578063e985e9c5146102cc578063f851a440146102df578063fb29d840146102f257600080fd5b80635692ceee1461023f5780636352211e1461025257806370a08231146102655780638da5cb5b1461027857806395d89b411461028b57600080fd5b806323b872dd116100ff57806323b872dd146101d057806333c41a90146101e357806340c10f191461020657806342842e0e1461021957806342966c681461022c57600080fd5b806301ffc9a71461013c57806306fdde0314610164578063081812fc14610179578063095ea7b3146101a457806317d70f7c146101b9575b600080fd5b61014f61014a366004610f11565b610305565b60405190151581526020015b60405180910390f35b61016c610357565b60405161015b9190610f7e565b61018c610187366004610f91565b6103e9565b6040516001600160a01b03909116815260200161015b565b6101b76101b2366004610fc6565b610412565b005b6101c260065481565b60405190815260200161015b565b6101b76101de366004610ff0565b610421565b61014f6101f1366004610f91565b60096020526000908152604090205460ff1681565b6101b7610214366004610fc6565b6104b1565b6101b7610227366004610ff0565b61058f565b6101b761023a366004610f91565b6105af565b6101b761024d36600461102c565b610697565b61018c610260366004610f91565b6106a2565b6101c261027336600461102c565b6106ad565b60085461018c906001600160a01b031681565b61016c6106f5565b6101b76102a1366004611047565b610704565b6101b76102b4366004611099565b61070f565b61016c6102c7366004610f91565b610726565b61014f6102da366004611175565b61078e565b60075461018c906001600160a01b031681565b61014f610300366004611175565b6107bc565b60006001600160e01b031982166380ac58cd60e01b148061033657506001600160e01b03198216635b5e139f60e01b145b8061035157506301ffc9a760e01b6001600160e01b03198316145b92915050565b606060008054610366906111a8565b80601f0160208091040260200160405190810160405280929190818152602001828054610392906111a8565b80156103df5780601f106103b4576101008083540402835291602001916103df565b820191906000526020600020905b8154815290600101906020018083116103c257829003601f168201915b5050505050905090565b60006103f4826107c8565b506000828152600460205260409020546001600160a01b0316610351565b61041d828233610801565b5050565b6001600160a01b03821661045057604051633250574960e11b8152600060048201526024015b60405180910390fd5b600061045d83833361080e565b9050836001600160a01b0316816001600160a01b0316146104ab576040516364283d7b60e01b81526001600160a01b0380861660048301526024820184905282166044820152606401610447565b50505050565b60008181526009602052604090205460ff16156105105760405162461bcd60e51b815260206004820181905260248201527f4e667420697320616c7265616479206d696e746564206f6e20746869732069646044820152606401610447565b6000818152600960205260409020805460ff19166001179055600880546001600160a01b0384166001600160a01b03199091161790556105508282610907565b600681905560405181906001600160a01b038416907fbad43499e79621fa90281bd86a7ca9a849c7dfd4497986cf42d2492f9f2b24d090600090a35050565b6105aa8383836040518060200160405280600081525061070f565b505050565b60008181526009602052604090205460ff166106065760405162461bcd60e51b8152602060048201526016602482015275151bdad95b881a59081a5cc81b9bdd081b5a5b9d195960521b6044820152606401610447565b6008546001600160a01b031633148061062957506007546001600160a01b031633145b6106755760405162461bcd60e51b815260206004820181905260248201527f4f6e6c79206f776e6572206f722061646d696e2063616e206275726e206e66746044820152606401610447565b6000818152600960205260409020805460ff1916905561069481610921565b50565b610694816001610704565b6000610351826107c8565b60006001600160a01b0382166106d9576040516322718ad960e21b815260006004820152602401610447565b506001600160a01b031660009081526003602052604090205490565b606060018054610366906111a8565b61041d33838361095c565b61071a848484610421565b6104ab848484846109fb565b6060610731826107c8565b50600061073c610b24565b9050600081511161075c5760405180602001604052806000815250610787565b8061076684610b44565b6040516020016107779291906111e2565b6040516020818303038152906040525b9392505050565b6001600160a01b03918216600090815260056020908152604080832093909416825291909152205460ff1690565b6000610787838361078e565b6000818152600260205260408120546001600160a01b03168061035157604051637e27328960e01b815260048101849052602401610447565b6105aa8383836001610bd7565b6000828152600260205260408120546001600160a01b039081169083161561083b5761083b818486610cdd565b6001600160a01b0381161561087957610858600085600080610bd7565b6001600160a01b038116600090815260036020526040902080546000190190555b6001600160a01b038516156108a8576001600160a01b0385166000908152600360205260409020805460010190555b60008481526002602052604080822080546001600160a01b0319166001600160a01b0389811691821790925591518793918516917fddf252ad1be2c89b69c2b068fc378daa952ba7f163c4a11628f55a4df523b3ef91a4949350505050565b61041d828260405180602001604052806000815250610d41565b6000610930600083600061080e565b90506001600160a01b03811661041d57604051637e27328960e01b815260048101839052602401610447565b6001600160a01b03821661098e57604051630b61174360e31b81526001600160a01b0383166004820152602401610447565b6001600160a01b03838116600081815260056020908152604080832094871680845294825291829020805460ff191686151590811790915591519182527f17307eab39ab6107e8899845ad3d59bd9653f200f220920489ca2b5937696c31910160405180910390a3505050565b6001600160a01b0383163b156104ab57604051630a85bd0160e11b81526001600160a01b0384169063150b7a0290610a3d903390889087908790600401611211565b6020604051808303816000875af1925050508015610a78575060408051601f3d908101601f19168201909252610a759181019061124e565b60015b610ae1573d808015610aa6576040519150601f19603f3d011682016040523d82523d6000602084013e610aab565b606091505b508051600003610ad957604051633250574960e11b81526001600160a01b0385166004820152602401610447565b805181602001fd5b6001600160e01b03198116630a85bd0160e11b14610b1d57604051633250574960e11b81526001600160a01b0385166004820152602401610447565b5050505050565b606060405180606001604052806021815260200161126c60219139905090565b60606000610b5183610d58565b600101905060008167ffffffffffffffff811115610b7157610b71611083565b6040519080825280601f01601f191660200182016040528015610b9b576020820181803683370190505b5090508181016020015b600019016f181899199a1a9b1b9c1cb0b131b232b360811b600a86061a8153600a8504945084610ba557509392505050565b8080610beb57506001600160a01b03821615155b15610cad576000610bfb846107c8565b90506001600160a01b03831615801590610c275750826001600160a01b0316816001600160a01b031614155b8015610c3a5750610c38818461078e565b155b15610c635760405163a9fbf51f60e01b81526001600160a01b0384166004820152602401610447565b8115610cab5783856001600160a01b0316826001600160a01b03167f8c5be1e5ebec7d5bd14f71427d1e84f3dd0314c0f7b2291e5b200ac8c7c3b92560405160405180910390a45b505b5050600090815260046020526040902080546001600160a01b0319166001600160a01b0392909216919091179055565b610ce8838383610e30565b6105aa576001600160a01b038316610d1657604051637e27328960e01b815260048101829052602401610447565b60405163177e802f60e01b81526001600160a01b038316600482015260248101829052604401610447565b610d4b8383610e96565b6105aa60008484846109fb565b60008072184f03e93ff9f4daa797ed6e38ed64bf6a1f0160401b8310610d975772184f03e93ff9f4daa797ed6e38ed64bf6a1f0160401b830492506040015b6d04ee2d6d415b85acef81000000008310610dc3576d04ee2d6d415b85acef8100000000830492506020015b662386f26fc100008310610de157662386f26fc10000830492506010015b6305f5e1008310610df9576305f5e100830492506008015b6127108310610e0d57612710830492506004015b60648310610e1f576064830492506002015b600a83106103515760010192915050565b60006001600160a01b03831615801590610e8e5750826001600160a01b0316846001600160a01b03161480610e6a5750610e6a848461078e565b80610e8e57506000828152600460205260409020546001600160a01b038481169116145b949350505050565b6001600160a01b038216610ec057604051633250574960e11b815260006004820152602401610447565b6000610ece8383600061080e565b90506001600160a01b038116156105aa576040516339e3563760e11b815260006004820152602401610447565b6001600160e01b03198116811461069457600080fd5b600060208284031215610f2357600080fd5b813561078781610efb565b60005b83811015610f49578181015183820152602001610f31565b50506000910152565b60008151808452610f6a816020860160208601610f2e565b601f01601f19169290920160200192915050565b6020815260006107876020830184610f52565b600060208284031215610fa357600080fd5b5035919050565b80356001600160a01b0381168114610fc157600080fd5b919050565b60008060408385031215610fd957600080fd5b610fe283610faa565b946020939093013593505050565b60008060006060848603121561100557600080fd5b61100e84610faa565b925061101c60208501610faa565b9150604084013590509250925092565b60006020828403121561103e57600080fd5b61078782610faa565b6000806040838503121561105a57600080fd5b61106383610faa565b91506020830135801515811461107857600080fd5b809150509250929050565b634e487b7160e01b600052604160045260246000fd5b600080600080608085870312156110af57600080fd5b6110b885610faa565b93506110c660208601610faa565b925060408501359150606085013567ffffffffffffffff808211156110ea57600080fd5b818701915087601f8301126110fe57600080fd5b81358181111561111057611110611083565b604051601f8201601f19908116603f0116810190838211818310171561113857611138611083565b816040528281528a602084870101111561115157600080fd5b82602086016020830137600060208483010152809550505050505092959194509250565b6000806040838503121561118857600080fd5b61119183610faa565b915061119f60208401610faa565b90509250929050565b600181811c908216806111bc57607f821691505b6020821081036111dc57634e487b7160e01b600052602260045260246000fd5b50919050565b600083516111f4818460208801610f2e565b835190830190611208818360208801610f2e565b01949350505050565b6001600160a01b038581168252841660208201526040810183905260806060820181905260009061124490830184610f52565b9695505050505050565b60006020828403121561126057600080fd5b815161078781610efb56fe68747470733a2f2f6170692e6578616d706c652e636f6d2f6d657461646174612fa2646970667358221220c7d711ead5b6f5f023fe8ba767f5a9796a21a2102e693caf7722a74a3fd7047f64736f6c63430008140033",
  "immutableReferences": {},
  "source": "// SPDX-License-Identifier: MIT\r\npragma solidity ^0.8.0;\r\n\r\nimport \"@openzeppelin/contracts/token/ERC721/ERC721.sol\";\r\n//import \"@openzeppelin/contracts/access/Ownable.sol\";\r\n\r\ncontract MyNFT is ERC721 {\r\n    uint256 public tokenId;\r\n    address public admin;\r\n    address public owner;\r\n    mapping (uint => bool) public isMinted;\r\n    event MintAttempt(address indexed to, uint256 indexed tokenId);\r\n\r\n        constructor(string memory name, string memory symbol) ERC721(name, symbol) {\r\n            admin = msg.sender;\r\n        }\r\n\r\n \r\n\r\n    function mint(address to,uint _tokenId) external  {\r\n       //require(!_exists(_tokenId), \"Token ID already minted\");\r\n       require(!isMinted[_tokenId], \"Nft is already minted on this id\");\r\n\r\n        isMinted[_tokenId] = true;\r\n        owner = to;\r\n        _safeMint(to, _tokenId);\r\n        tokenId = _tokenId;\r\n\r\n        emit MintAttempt(to, tokenId);\r\n    }\r\n\r\n    function _baseURI() internal view virtual override returns (string memory) {\r\n        return \"https://api.example.com/metadata/\";\r\n\r\n    }\r\n        function setApprovalForAllToAuction(address auctionContract) public {\r\n        // The caller of this function will set approval for the auction contract to manage all their NFTs\r\n        setApprovalForAll(auctionContract, true);\r\n    }\r\n    function checkisApprovedForAll(address _owner, address operator) public view returns (bool) {\r\n        return isApprovedForAll(_owner, operator);\r\n        \r\n    }\r\n\r\n \r\n\r\n    // Burn function to permanently remove an NFT\r\n    function burn(uint256 _tokenId) external {\r\n        // Check if the caller is the owner of the token or the admin\r\n         require(isMinted[_tokenId],\"Token id is not minted\");\r\n         require(msg.sender == owner || msg.sender == admin, \"Only owner or admin can burn nft\");\r\n        // Burn the NFT\r\n        isMinted[_tokenId] = false;\r\n        _burn(_tokenId);\r\n    }\r\n    \r\n}\r\n",
  "sourcePath": "D:\\Blockchain\\Truffle\\CRAwithTruffle\\truffle\\contracts\\NFTItemERC721.sol",
  "compiler": {
    "name": "solc",
    "version": "0.8.20+commit.a1b79de6.Emscripten.clang"
  },
  "schemaVersion": "3.4.16",
  "updatedAt": "2024-08-30T10:41:50.067Z",
  "devdoc": {
    "errors": {
      "ERC721IncorrectOwner(address,uint256,address)": [
        {
          "details": "Indicates an error related to the ownership over a particular token. Used in transfers.",
          "params": {
            "owner": "Address of the current owner of a token.",
            "sender": "Address whose tokens are being transferred.",
            "tokenId": "Identifier number of a token."
          }
        }
      ],
      "ERC721InsufficientApproval(address,uint256)": [
        {
          "details": "Indicates a failure with the `operator`s approval. Used in transfers.",
          "params": {
            "operator": "Address that may be allowed to operate on tokens without being their owner.",
            "tokenId": "Identifier number of a token."
          }
        }
      ],
      "ERC721InvalidApprover(address)": [
        {
          "details": "Indicates a failure with the `approver` of a token to be approved. Used in approvals.",
          "params": {
            "approver": "Address initiating an approval operation."
          }
        }
      ],
      "ERC721InvalidOperator(address)": [
        {
          "details": "Indicates a failure with the `operator` to be approved. Used in approvals.",
          "params": {
            "operator": "Address that may be allowed to operate on tokens without being their owner."
          }
        }
      ],
      "ERC721InvalidOwner(address)": [
        {
          "details": "Indicates that an address can't be an owner. For example, `address(0)` is a forbidden owner in EIP-20. Used in balance queries.",
          "params": {
            "owner": "Address of the current owner of a token."
          }
        }
      ],
      "ERC721InvalidReceiver(address)": [
        {
          "details": "Indicates a failure with the token `receiver`. Used in transfers.",
          "params": {
            "receiver": "Address to which tokens are being transferred."
          }
        }
      ],
      "ERC721InvalidSender(address)": [
        {
          "details": "Indicates a failure with the token `sender`. Used in transfers.",
          "params": {
            "sender": "Address whose tokens are being transferred."
          }
        }
      ],
      "ERC721NonexistentToken(uint256)": [
        {
          "details": "Indicates a `tokenId` whose `owner` is the zero address.",
          "params": {
            "tokenId": "Identifier number of a token."
          }
        }
      ]
    },
    "events": {
      "Approval(address,address,uint256)": {
        "details": "Emitted when `owner` enables `approved` to manage the `tokenId` token."
      },
      "ApprovalForAll(address,address,bool)": {
        "details": "Emitted when `owner` enables or disables (`approved`) `operator` to manage all of its assets."
      },
      "Transfer(address,address,uint256)": {
        "details": "Emitted when `tokenId` token is transferred from `from` to `to`."
      }
    },
    "kind": "dev",
    "methods": {
      "approve(address,uint256)": {
        "details": "See {IERC721-approve}."
      },
      "balanceOf(address)": {
        "details": "See {IERC721-balanceOf}."
      },
      "getApproved(uint256)": {
        "details": "See {IERC721-getApproved}."
      },
      "isApprovedForAll(address,address)": {
        "details": "See {IERC721-isApprovedForAll}."
      },
      "name()": {
        "details": "See {IERC721Metadata-name}."
      },
      "ownerOf(uint256)": {
        "details": "See {IERC721-ownerOf}."
      },
      "safeTransferFrom(address,address,uint256)": {
        "details": "See {IERC721-safeTransferFrom}."
      },
      "safeTransferFrom(address,address,uint256,bytes)": {
        "details": "See {IERC721-safeTransferFrom}."
      },
      "setApprovalForAll(address,bool)": {
        "details": "See {IERC721-setApprovalForAll}."
      },
      "supportsInterface(bytes4)": {
        "details": "See {IERC165-supportsInterface}."
      },
      "symbol()": {
        "details": "See {IERC721Metadata-symbol}."
      },
      "tokenURI(uint256)": {
        "details": "See {IERC721Metadata-tokenURI}."
      },
      "transferFrom(address,address,uint256)": {
        "details": "See {IERC721-transferFrom}."
      }
    },
    "version": 1
  },
  "userdoc": {
    "kind": "user",
    "methods": {},
    "version": 1
  }
}