{
  "contractName": "SimpleStorage",
  "abi": [
    {
      "inputs": [],
      "name": "value",
      "outputs": [
        {
          "internalType": "uint256",
          "name": "",
          "type": "uint256"
        }
      ],
      "stateMutability": "view",
      "type": "function",
      "constant": true
    },
    {
      "inputs": [],
      "name": "read",
      "outputs": [
        {
          "internalType": "uint256",
          "name": "",
          "type": "uint256"
        }
      ],
      "stateMutability": "view",
      "type": "function",
      "constant": true
    },
    {
      "inputs": [
        {
          "internalType": "uint256",
          "name": "newValue",
          "type": "uint256"
        }
      ],
      "name": "write",
      "outputs": [],
      "stateMutability": "nonpayable",
      "type": "function"
    }
  ],
  "bytecode": "0x6080604052600a60005534801561001557600080fd5b5060c2806100246000396000f3fe6080604052348015600f57600080fd5b5060043610603c5760003560e01c80632f048afa1460415780633fa4f24514605357806357de26a414606d575b600080fd5b6051604c3660046074565b600055565b005b605b60005481565b60405190815260200160405180910390f35b600054605b565b600060208284031215608557600080fd5b503591905056fea2646970667358221220c64dc590ce8aa332ad9ed9b473f3cbe84c4fdc0147a473ca46cf8ed3dcf7c1b364736f6c63430008140033",
  "immutableReferences": {},
  "source": "// SPDX-License-Identifier: MIT\npragma solidity ^0.8.0;\n\ncontract SimpleStorage {\n  uint256 public value = 10;\n\n  function read() public view returns (uint256) {\n    return value;\n  }\n\n  function write(uint256 newValue) public {\n    value = newValue;\n  }\n}\n",
  "sourcePath": "D:\\Blockchain\\Truffle\\CRAwithTruffle\\truffle\\contracts\\SimpleStorage.sol",
  "compiler": {
    "name": "solc",
    "version": "0.8.20+commit.a1b79de6.Emscripten.clang"
  },
  "schemaVersion": "3.4.16",
  "updatedAt": "2024-08-30T10:41:59.604Z",
  "networkType": "ethereum",
  "devdoc": {
    "kind": "dev",
    "methods": {},
    "version": 1
  },
  "userdoc": {
    "kind": "user",
    "methods": {},
    "version": 1
  }
}